:100000000C94E1010C9428020C9428020C946318BF
:100010000C9428020C9428020C9428020C942802B8
:100020000C9428020C9428020C9418200C94EC20B8
:100030000C94481B0C9428020C9428020C9428025F
:100040000C9428020C9428020C9428020C94280288
:100050000C9428020C94BB1B0C9428020C942802CC
:100060000C9428020C9428020C9428020C94280268
:100070000C9428020C9428020C9428020C94280258
:100080000C9428020C9428020C9428020C94280248
:100090000C9428020C9428020C9428020C94280238
:1000A0000C9428020C9428020C94280200000000F2
:1000B0000000000000000000000014001A00090009
:1000C00013000A0000000468156416621761070037
:1000D00000001D001B0006001900050000000000C4
:1000E00000002B002C410000000000000000000078
:1000F00000000000000033001C0018000F000D007D
:10010000000012680C64087211610B0000003800D6
:100110003700360010000E000000000000002A42E8
:10012000284300000100010001000100010001005E
:1001300001000100010001000100010001000100B7
:1001400001000100010001000100010001000100A7
:100150000100010001000100010001000100010097
:100160000000000000000000000000000000270266
:10017000260230022F020000000000004F00520053
:100180005100500000000000000030002F0000006F
:10019000000000000000000000000000000000005F
:1001A0000000000000000000000000002400250006
:1001B00026002900000034002100220023002E0028
:1001C000000035001E001F0020003100000000006C
:1001D000000027002D0000000100010001000100C7
:1001E0000100010001000100010001000100010007
:1001F00001000100010001000100010001000100F7
:1002000001000100010001000100010001000100E6
:1002100001000100000000000000000000000000DC
:1002200000000000240225022602290000003402FA
:100230002102220223022E02000035021E021F02AA
:100240002002310200000000000027022D02000001
:100250000100010001000100010001000100010096
:100260000100010001000100010001000100010086
:100270000100010001000100010001000100010076
:100280000100010001000100010001001A034C00FF
:100290006F007400750073003500380020004700BF
:1002A0006C006F00770000001A03540077006500AF
:1002B000650074007900440061004200690072002A
:1002C000640000000403090409023B00020100A0CD
:1002D000FA090400000103010100092111010001D4
:1002E0002240000705810308000A090401000103F8
:1002F000000000092111010001226D0007058203A1
:1003000020000A12010002000000087900580001D4
:10031000000102000105010980A101850319012ADC
:10032000B700150126B700950175108100C0050CB6
:100330000901A101850419012AA002150126A002C4
:10034000950175108100C005010906A1018506050A
:100350000719E029E71500250195087501810205B7
:1003600007190029EF1500250195F0750181020597
:1003700008190129059505750191029501750391EB
:1003800001C005010906A101050719E029E71500CB
:100390002501950875018102950175088101050700
:1003A000190029FF150026FF009506750881000534
:1003B00008190129059505750191029501750391AB
:1003C00001C011241FBECFEFDAE0DEBFCDBF04B6FF
:1003D00003FE27C08091720390917303A091740370
:1003E000B09175038730904BA740B04BD1F4109279
:1003F000720310927303109274031092750314BE6B
:1004000084B7877F84BF0FB6F894A8958091600069
:10041000886180936000109260000FBEE0E0F8E316
:10042000099512E0A0E0B1E0EAE5F6E402C005902B
:100430000D92AC33B107D9F723E0ACE3B2E001C0D1
:100440001D92A237B207E1F70E94FC130C94072318
:100450000C94000081E008959C013A9521153F41DC
:1004600050F5FC01EE27F170BC0166277270AC01FB
:10047000442754709C012227387094FF0EC080E1FD
:10048000EF2B09F480E0672B09F08062452B09F01F
:100490008064232B89F08068089581E0EF2B09F4B4
:1004A00080E0672B09F08260452B09F08460232BE4
:1004B00019F08860089580E00895CF93DF93EC01F0
:1004C0000E942C029E01205E31092830310510F077
:1004D000209739F40E9428048C2FDF91CF910C943F
:1004E0009B030E940106F8CFCF93DF93EC010E949B
:1004F000E103CE010E942C029E01205E31092830CA
:10050000310510F0CD2B21F4DF91CF910C942F0405
:10051000DF91CF910C94080681E008950C942A0293
:1005200008950C9490021F93CF93DF9300D000D0D6
:100530000F92CDB7DEB749835A836B8330913E0269
:1005400089819A8131111DC06623B9F02223A9F057
:100550000E94CF07182F682F89819A810E947807FF
:1005600069817A81812F0F900F900F900F900F90DB
:10057000DF91CF911F910C94B80D0E94A607182F00
:10058000EFCF0E94CF0769817A81EDCFFC01262F42
:10059000408151816281738184810C94930281E056
:1005A0000895CF93DF93EC0160E00E94C602BE0184
:1005B000DF91CF910C9491020E94050F0E944F038E
:1005C0000C942A0F0E946B170C942D0F80E00C9452
:1005D0005003089508950E9421060E94EA022FEF19
:1005E00084E39CE0215080409040E1F700C000008F
:1005F0000C94DF1B0F931F93CF93DF93EC0161E00B
:100600000E94C6028C01BE010E94C916BE01C8012B
:100610000E948E02882359F1BE01C8010E94121760
:10062000882329F1BE01C8010E94E1158823F9F051
:10063000BE01C8010E9421148823C9F0BE01C8016F
:100640000E944B15882399F08A81882339F001157F
:100650008CE5180751F00F3D1C4579F0CE01DF9174
:10066000CF911F910F910C948C020E94EB0280E0BD
:10067000DF91CF911F910F9108950E94080CF7CF41
:100680000C94E9020E94E7190E9450030C94400365
:1006900008950C94480381E008950C944B03089549
:1006A000CF93C82F0E9449038C2FCF910C944D03F8
:1006B000CF93DF93CDB7DEB72B970FB6F894DEBF9D
:1006C0000FBECDBF4F83588769877A878B876111AB
:1006D0000E94570B1E821D8285E0FE013796DE01C7
:1006E000119601900D928A95E1F78C819D81892B5D
:1006F00089F449815A816B817C818D819E810E9420
:10070000610A2B960FB6F894DEBF0FBECDBFDF9106
:10071000CF91089589819A8189238F3F51F3CE012A
:1007200001960E94CF028111E4CFEBCFFC018081C2
:1007300091810C941108CF93C82F882309F43FC0EE
:100740008CEF8C0F813AA0F46C2F809184019091F2
:1007500085010E94401A882329F08C2F0E94020BE9
:100760000E940F0B8C2F0E94FB0ACF910C940F0B51
:1007700080E28C0F883048F4C77081E001C0880F98
:10078000CA95EAF70E94310BF0CFEBE5EC0FE330AE
:1007900040F4F0E0EA50FE4F808190E0CF910C945D
:1007A000141AC85AC73158F4EC2FF0E0EE0FFF1FAF
:1007B000E853FE4F80819181CF910C942A1ACF91FA
:1007C0000895882329F19CEF980F913A20F40E9414
:1007D000020B0C940F0B90E2980F983050F4877036
:1007E00091E001C0990F8A95EAF7892F0E94370B93
:1007F000F0CF9BE5980F933020F490E080E00C94CC
:10080000141A885A873120F490E080E00C942A1A58
:1008100008951F93CF93DF93182FEB010E949B0342
:10082000209731F4812FDF91CF911F910C94E10338
:100830008FE99FE00197F1F700C000002197F0CF0A
:100840006AE070E0893311F460E570E00C9409040B
:10085000882321F00E94310B0C940F0B08958823FC
:1008600021F00E94370B0C940F0B0895CF92DF926A
:10087000EF92FF920F931F93CF93DF93FC01C62F4C
:10088000972F2281358132953F70872F82958F7007
:10089000082F10E08C3090F5F801E75FFC4D0C94C8
:1008A000A922D72FDF70907F11F0D295D07F22231D
:1008B000A9F0DD2359F080E28C0F883010F0C111CF
:1008C00009C08D2F0E94310B0E940F0B8C2F0E94AC
:1008D0009B0314C08D2F0E94470BF6CF8C2F0E94D4
:1008E000E103DD2359F080E28C0F883010F0C11154
:1008F00017C08D2F0E94370B0E940F0B0850110953
:100900000430110508F041C10E94E719DF91CF9131
:100910001F910F91FF90EF90DF90CF900C945003B8
:100920008D2F0E944D0BE8CF872F8F70907F9032D4
:1009300011F08295807FC13061F4222329F0333099
:10094000E8F60E942804DACF3230C0F60E942F0465
:10095000D5CF222319F03323A1F3B8CF3323B1F33A
:10096000C93309F00AC12FEF87EE93E02150804090
:100970009040E1F700C000008C2F0E94E103BECF41
:10098000872F86958695837061F0813009F0B6CF08
:10099000862F9370211102C090E080E00E942A1AF5
:1009A000ADCF862F9370211102C090E080E00E94AD
:1009B000141AA4CF872F837009F044C021119ECF51
:1009C000862F829586958770880F880F6F70C62E48
:1009D000D12CF12CE12C082E04C0CC0CDD1CEE1C1B
:1009E000FF1C0A94D2F740E050E0BA01C4FF0FC0E8
:1009F0004FE050E060E070E004C0440F551F661FF8
:100A0000771F8A95D2F74095509560957095292F5C
:100A1000269526952370CB01BA016C297D298E2954
:100A20009F29223049F058F4213019F00E948E0697
:100A300065CF0E947C0662CF0E94A0065FCF0E9415
:100A40007A065CCF8695222311F0872F8170882348
:100A500009F454CF8C2F829586958770880F880F64
:100A60006C2F6F70C62ED12CF12CE12C082E04C0F7
:100A7000CC0CDD1CEE1CFF1C0A94D2F740E050E0C9
:100A8000BA01C4FF0FC04FE050E060E070E004C066
:100A9000440F551F661F771F8A95D2F740955095D2
:100AA00060957095292F269526952370CB01BA0164
:100AB0006C297D298E299F29223049F058F4213054
:100AC00019F00E9453071ACF0E94410717CF0E94C6
:100AD000650714CF0E94B60611CFD72FDF702223EF
:100AE00029F08D2F0E94DC068C2F2BCF862F0E94A1
:100AF0002F048D2F0E94FD0601CF613F19F148F4AC
:100B0000603F91F0222369F13111E0CE892F8F717E
:100B10001DC0623FF1F0633FA9F72223F9F0872F50
:100B20008F710E94C706EACE222341F0323008F0CE
:100B3000E5CE892F8F710E942007E0CE333008F078
:100B4000DDCEF7CF872F8F712223A1F20E94DC0622
:100B5000D5CE872F8F712223C9F3CCCF0E94C20636
:100B6000CDCE332379F0C93341F49FEF27EE83E0F4
:100B7000915020408040E1F7FDCE8FE39CE9019742
:100B8000F1F7F8CE892F8F71B5CFDF91CF911F91FB
:100B90000F91FF90EF90DF90CF9008950F931F93E8
:100BA000CF93DF93EC01688179818A810E941B08D1
:100BB0008C010E9477070E947906B801CE01DF916F
:100BC000CF911F910F910C943604CF93DF93EC01DA
:100BD0008B819C81892B29F08881998189238F3F82
:100BE00019F4DF91CF910895CE010E94FA02882373
:100BF000C1F3CE010E94CE05CE01DF91CF910C94BE
:100C0000D102882321F00E94470B0C940F0B08950A
:100C1000882321F00E944D0B0C940F0B089590E057
:100C200080E00E94141A90E080E00E942A1A0E943C
:100C3000570B0E945A0B0C940F0B0E94090B0C943B
:100C40000F060E94410B0C941D06E92FE295EF70F0
:100C5000E250EE3070F4F0E0EB5EFC4D0C94A92213
:100C6000803F19F020F4883E20F481E00895843F0D
:100C7000E1F380E00895883EC0F3813FD1F7F5CFDE
:100C800093FB882780F90895FC01808191810E945F
:100C900011080C942506CF93DF9300D000D00F925B
:100CA000CDB7DEB70F900F900F900F900F90DF91A0
:100CB000CF910895CF93DF9300D000D000D0CDB76F
:100CC000DEB726960FB6F894DEBF0FBECDBFDF911C
:100CD000CF91089508950C946A060E946B06609364
:100CE0006B0270936C0280936D0290936E020C9471
:100CF0000F0608950C946D060F931F9300916B02DD
:100D000010916C0220916D0230916E02602B712B5C
:100D1000822B932B1F910F910C946D060F931F93B1
:100D200000916B0210916C0220916D0230916E0265
:100D300060237123822393231F910F910C946D06DE
:100D40000F931F9300916B0210916C0220916D0222
:100D500030916E0260277127822793271F910F9190
:100D60000C946D060C946A060C94B2060E94B406AC
:100D700060936702709368028093690290936A029D
:100D80000C940F0660E070E0CB010C94B6060F9354
:100D90001F9341E050E060E070E08A019B0104C0D5
:100DA000000F111F221F331F8A95D2F7C901B80106
:100DB0001F910F910C94B6060F931F9341E050E0E2
:100DC00060E070E004C0440F551F661F771F8A95CE
:100DD000D2F78091670290916802A0916902B09168
:100DE0006A028A019B01082B192B2A2B3B2BC90174
:100DF000B8011F910F910C94B6060F931F9341E019
:100E000050E060E070E004C0440F551F661F771F7C
:100E10008A95D2F7CB01BA0160957095809590952F
:100E200000916702109168022091690230916A0274
:100E300060237123822393231F910F910C94B60694
:100E40000F931F9341E050E060E070E004C0440F56
:100E5000551F661F771F8A95D2F780916702909180
:100E60006802A0916902B0916A028A019B01082779
:100E700019272A273B27C901B8011F910F910C940C
:100E8000B6060F931F93009167021091680220919C
:100E9000690230916A02602B712B822B932B1F9178
:100EA0000F910C94B6060F931F9300916702109157
:100EB00068022091690230916A02602371238223C3
:100EC00093231F910F910C94B6060F931F930091DB
:100ED0006702109168022091690230916A026027CE
:100EE0007127822793271F910F910C94B6060895BE
:100EF000E92FEE0FE90FEE0F8E0F982F977041E05C
:100F000001C0440F9A95EAF786958695869595E0F7
:100F1000899FF0011124E15CFD4F30E020E070E09A
:100F20005191DF011197CB01022E02C09695879552
:100F30000A94E2F7817081958527842385278C9315
:100F40002F5F3F4F2530310559F70895E92FEE0FF8
:100F5000E90FEE0F8E0F982F9770869586958695E0
:100F600025E0829FF0011124E15CFD4F50E040E05C
:100F700080E0219130E0092E02C0369527950A9431
:100F8000E2F721703327042E01C0220F0A94EAF7FA
:100F9000822B4F5F5F4F4530510559F70895BF923F
:100FA000CF92DF92EF92FF920F931F93CF93DF9335
:100FB0008C01C0906702D0906802E0906902F090C6
:100FC0006A0280916B0290916C02A0916D02B091C7
:100FD0006E02C82AD92AEA2AFB2ACFE1D0E0BC2E29
:100FE000D701C6010C2E04C0B695A7959795879595
:100FF0000A94D2F780FD0EC0219788F7B12C8B2D73
:10100000DF91CF911F910F91FF90EF90DF90CF90E4
:10101000BF900895B8018C2F0E94CC0D019761F309
:10102000EECFCF93DF93EC010E94CF07BE01DF919B
:10103000CF910C94CC0D1F93CF93DF93EB01909144
:101040003E02992331F0CB01DF91CF911F910C9497
:101050001108882379F0CB010E94CF07182F682F41
:10106000CE010E947807BE01812FDF91CF911F91A1
:101070000C94CC0DCB010E94A607182FF4CF1F9320
:10108000CF93DF93C0916F0216E0809170028C13B2
:1010900004C0DF91CF911F910895D0E01C9FF00113
:1010A0001D9FF00D1124EF58FD4F40815181628149
:1010B0007381848195810E945A062196C770E5CF7D
:1010C0004091A1025091A2026091A3027091A402EA
:1010D0008091A5029091A6020C945A06FF920F935C
:1010E0001F93CF93DF938091A602807FD1F48091EC
:1010F000A3028823B1F080916F0210917002609179
:10110000A1027091A202A091A402B091A502062FA3
:101110000723C0918201D091830196E0F92E181324
:1011200006C0DF91CF911F910F91FF90089590E03D
:10113000109711F00F3F19F401968770F0CFF89EC9
:101140009001F99E300D1124F901EF58FD4F4181B6
:101150004713F2CF40814613EFCF42814111ECCFCC
:10116000438154814A1B5B0B4C175D0728F7809124
:10117000A6028F7080618093A602F901EA58FD4FA4
:1011800080818F708061808381EA92E00E94E50512
:10119000DF91CF911F910F91FF900C943F08AF9278
:1011A000BF92CF92DF92EF92FF920F931F93CF9354
:1011B000DF93CDB7DEB761970FB6F894DEBF0FBEF1
:1011C000CDBF8C0185E0F801DE011D9601900D92E6
:1011D0008A95E1F7F801E28081EAC82E82E0D82EF4
:1011E0006091A4027091A5026115710509F44DC1C9
:1011F0009091A1022091A202892F82238F3F09F4AE
:1012000044C140815181A380B480F090A302F501D4
:10121000E61BF70BBF01E0918201F0918301FF20F3
:1012200009F404C18091A602382F307F6E177F0722
:1012300008F0BDC0311179C0FE2C251323C09413D2
:1012400021C0E1101FC08F7080618093A6020E94B0
:101250006008C6010E94E5058091A602F801858319
:101260008F2D61960FB6F894DEBF0FBECDBFDF9114
:10127000CF911F910F91FF90EF90DF90CF90BF9093
:10128000AF900895AB2829F0842F85238F3F09F074
:1012900015C180E0F82FF170DF2E80FF3CC08091F7
:1012A0006F022091700236E0821315C04D875E8771
:1012B0008D859E850E941108292F22952F7022303E
:1012C000F0F0243018F59F70F1F0F8019581907FCF
:1012D000D1F4D12C1EC090E0389FF001399FF00D61
:1012E0001124EF58FD4F6181651306C060816413BE
:1012F00003C062816E110FC001968770D5CF9F70B9
:1013000011F0882331F3805E883018F3C8010E9401
:10131000E505FD2CA5CFEE2009F4A2CF8091A60211
:1013200081608093A602F12C9BCF251314C09413E7
:1013300012C0E11010C0F8018583C8010E94E505C4
:1013400086E0F801A1EAB2E001900D928A95E1F7FA
:101350000E94600885CFC8010E944406882319F1C5
:10136000EE2009F18091A602803270F02091A10256
:101370003091A20238872F831986BB86AA868C8774
:10138000CE0107960E94E50586E0F801A1EAB2E0E9
:1013900001900D928A95E1F70E946E080E94600804
:1013A000FF24F3945DCFC8010E94E505F9CF311108
:1013B00013C07A2DB98AA88A6E2D89890E944B069E
:1013C00081EA92E00E94E50586E0F60111928A9595
:1013D000E9F70E946008A7CF25130FC094130DC032
:1013E000E1100BC0F8018583C8010E94E50586E085
:1013F000F60111928A95E9F733CFC8010E9444069D
:10140000882389F2EE2079F28091A602803208F4D6
:10141000BBCF2091A1023091A2023A8329831B8283
:10142000BD82AC828E83CE010196ACCF6E177F0752
:10143000F8F4FE2CEE2009F4B6CF25130BC094135C
:1014400009C086E0F801A1EAB2E001900D928A9508
:10145000E1F706CFC8010E944406811195CF809123
:10146000A60281608093A602C8010E94E505F8CE1D
:101470007A2DB98AA88A6E2D89890E944B0686E04A
:10148000F60111928A95E9F763CFEE2009F48BCF2C
:10149000C8010E944406F82E882309F484CF86E010
:1014A000F801A1EAB2E001900D928A95E1F781EA94
:1014B00092E00E9496030E946E084ACF81E08E253A
:1014C000E9CE1F93CF93DF93CDB7DEB72C970FB63E
:1014D000F894DEBF0FBECDBF4F83588769877A87E8
:1014E0008B879C87CE0107960E94CF08882369F0DE
:1014F0008A859B85892B39F04F815885842F8523D8
:101500008F3F09F071C016E05FC086E0FE0137969C
:10151000DE01119601900D928A95E1F78A859B85EF
:10152000892B89F38F81988589238F3F61F32091DF
:10153000700230E0C90101968770992740916F02CF
:101540004817190671F40E94210610927002109239
:101550006F0286E0E1EAF2E0DF011D928A95E9F789
:10156000D2CF96E0929FD001939FB00D1124AF5837
:10157000BD4FFE01319601900D929A95E1F780934F
:1015800070020E943F08BFCF819FC00111248F5875
:101590009D4F0E94CF088823E9F0E0916F021E9FC3
:1015A000F0011124EF58FD4F408151816281738118
:1015B000848195810E945A0680916F0290E0019685
:1015C0008770992780936F0280916F0290917002CB
:1015D0008913DACF2C960FB6F894DEBF0FBECDBFBD
:1015E000DF91CF911F91089569857A858B859C85C0
:1015F0000E945A0688CF682F8091840190918501BE
:101600000C94C01A682F80918401909185010C94EC
:10161000CB1A80918401909185010C94D61AE091A7
:101620008401F09185018091C9028083E091840159
:10163000F091850180819091C802892B8083E0918F
:101640008401F091850180819091C702892B80836C
:1016500080918401909185010C94FA198091C902BE
:1016600008959091C902892B8093C90208958095AD
:101670009091C90298239093C90208958093C9025A
:1016800008951092C90208958091C802089590911A
:10169000C802892B8093C802089580959091C80252
:1016A00098239093C80208958093C80208951092D9
:1016B000C80208951092C70208956FEF7FEF90E07F
:1016C00080E00C94F12290E080E00E94CD2221E0A5
:1016D000893E9E4F09F020E0822F089582E090E03D
:1016E0000C94C52283E090E00C94C522CF9384E053
:1016F00090E00E94C522C82F82E290E00E94C5229D
:10170000982F8C2FCF910895CF93C92F682F84E005
:1017100090E00E94D3226C2F82E290E0CF910C9453
:10172000D322AB01BC018FE090E00C94E522AB0129
:10173000BC0183E190E00C94E52260E070E0CB0115
:101740000C94970B60E070E0CB010E94910B0C941D
:101750009D0B69EE7EEF90E080E00E94F12260E058
:1017600082E090E00E94D32260E083E090E00E945B
:10177000D32210926B0210926C0210926D021092A2
:101780006E0260E084E090E00E94D32260E082E29A
:1017900090E00E94D32260E085E090E00E94D32296
:1017A00060E086E090E00E94D3226FEF87E090E057
:1017B0000E94D32240E050E0BA0188E090E00E940D
:1017C000E52260E08DE090E00E94D32240E050E00E
:1017D000BA0188E190E00E94E52260E087E190E0B4
:1017E0000E94D32240E050E0BA018CE190E00E94D8
:1017F000E52270E060E080E290E00E94F12240E0AB
:1018000050E0BA0188E190E00E94E5220C94A20B1E
:101810000C94A90B682F8EE090E00C94D3220E94C8
:10182000841B6093D9027093DA028093DB02909359
:10183000DC026093D5027093D6028093D702909316
:10184000D802089585B7806885BF85B7806885BF51
:101850000895089508950C94290C08950C942D0C66
:101860000E94220C8BEE9EE00E94DD190E942A0C41
:101870000C942B0C0C94F710089508950E943C0CC6
:101880000C943D0C0E946F1B0E94AA0E0E94D80F60
:101890000E9409140C942E0CAF92BF92CF92DF924B
:1018A000EF92FF920F931F93CF93DF93CDB7DEB7E5
:1018B0002A970FB6F894DEBF0FBECDBF0E94661008
:1018C00081110E940F0C8BECA82E82E0B82E10E044
:1018D00000E0C02E802F0E942F0FE82EF501F1901E
:1018E0005F01F81609F44BC08091DD0281FD0E9472
:1018F000350F8F2D8E25D12CFF24F394982F9F2107
:10190000C9F10E943A0C882399F0DE82CF82EF2041
:1019100081E009F480E088870E94781B8160782F3D
:101920009A8789874E815F8168858A850E945803DE
:10193000F801E553FD4F8081F826F0820E94E719F7
:101940009091CA02891791F10E94E7198093CA0207
:101950002A960FB6F894DEBF0FBECDBFDF91CF91B0
:101960001F910F91FF90EF90DF90CF90BF90AF90BD
:101970000C945003D394FF0CF6E0DF12BFCF0F5F3F
:101980001F4F0A30110509F0A4CF8FEF89838A8396
:101990001B820E94781B8160782F9D838C834981F4
:1019A0005A816B818D810E945803C8CF2A960FB649
:1019B000F894DEBF0FBECDBFDF91CF911F910F9185
:1019C000FF90EF90DF90CF90BF90AF900895CF93AE
:1019D000DF930E94D00DEC01811521E5920778F587
:1019E000811530E5930708F076C08F3B910580F4B0
:1019F000883A910508F064C0853A910508F058C00E
:101A00008430910588F4019779F0D0E0C0E00CC0F3
:101A10008115904268F4C11581E0D80728F4CE0101
:101A2000805E9109089788F7CE01DF91CF910895E4
:101A3000C11590E4D90748F3DF70D06AF5CF81155E
:101A400024E5920778F4811533E5930708F06FC019
:101A5000811542E5940708F05AC0D82FCC27C16FF2
:101A6000D06AE2CFC1158AE5D80770F4C11599E5AF
:101A7000D90708F06FC0C11528E5D20730F2DC2F76
:101A8000CC27C06FD06AD0CFCE019056811590423E
:101A900008F0BBCF8D2F8F710E94670E90E0982FBA
:101AA000882788279F719C012C2BE901D062BCCF2D
:101AB000C55AD0E0C95DDD4FC881D0E0D064B4CF55
:101AC000C85AD0E0CC0FDD1FC750DE4F0990D88137
:101AD000C02DD464A9CF64E0969587956A95E1F707
:101AE00083702C2F26952695237040E2249F900129
:101AF0001124382B8C2F8370C1E0D0E002C0CC0FB2
:101B0000DD1F8A95E2F7C22BD32BDC688DCF837063
:101B1000992721E030E002C0220F331F8A95E2F7B7
:101B2000C695C69580E2C89FE0011124ECCF837072
:101B3000992721E030E002C0220F331F8A95E2F797
:101B4000C695C69590E2C99FE0011124C22BD32B04
:101B5000DA686ACF8C2F8F700E94670E34E0D695BA
:101B6000C7953A95E1F7CF709C2FEC01D0695CCF17
:101B7000972F70E026E0929F600D711D1124FB01EC
:101B80009CE3899FE00DF11D1124EE0FFF1FE4552A
:101B9000FF4F8591949108950E94B80D0C94E70C25
:101BA00082389105B1F1B0F48133910509F475C023
:101BB00048F48932910509F469C08A32910509F423
:101BC00073C008958533910509F459C0893391058F
:101BD00001F10895833E9105A9F138F4803E910505
:101BE000F9F0823E910549F10895863E9105A9F1EB
:101BF000873E9105C9F1843E910519F5209149036D
:101C000021FF1FC08091480384FD14C087EE90E03F
:101C10000895209148032370A1F080EE90E008958C
:101C20002091480320FD47C03091490330FF09C08F
:101C300024FF44C090E080E004C02091480322FDCE
:101C4000F7CF08952091480322FD3BC0309149030E
:101C500030FDE3CF24FFF5CFEDCF2091480323FFE4
:101C6000F0CF24FDE7CFD2CF2091480323FD2CC035
:101C70003091490331FFEECF84EE90E0089520913A
:101C8000480325FFDECF89E290E0089520914803C4
:101C900025FFD7CF85E390E008952091480326FFE4
:101CA000D0CF8AE290E008952091480326FFC9CF63
:101CB00081E390E0089589E390E0089583EE90E059
:101CC000089582EE90E0089586EE90E00895909158
:101CD000480392FF06C0282F28712830F9F4877F27
:101CE000846093FF06C0282F28712831F1F4877E85
:101CF00084612091490320FF06C0382F38713830A5
:101D0000D9F4877F816021FF06C0282F28712831F0
:101D1000D1F4877E816194FD877E0895282F2471F8
:101D20002430F9F68B7F8860DCCF282F2471243192
:101D300001F78B7E8861DDCF382F3171313019F793
:101D40008E7F8860E0CF282F2171213121F78E7E90
:101D50008861E1CF1092440310924503109246032C
:101D6000109247030895CF92DF92EF92FF926B019A
:101D70007C010E94F71081110EC00E94841BC61ABC
:101D8000D70AE80AF90AC0924403D0924503E092C8
:101D90004603F0924703FF90EF90DF90CF900895B5
:101DA0000F931F930E94F710882321F01F910F912A
:101DB0000C94841B0E94841B0091440310914503E2
:101DC0002091460330914703600F711F821F931FBC
:101DD0001F910F91089580E008950C945D0B0E946F
:101DE00066108FE39CE90197F1F700C000000E94A4
:101DF000661080E00E942F0F80FF04C00E94ED0E4D
:101E00000C94DF1B08950C94EF0E0E94630B81115C
:101E100002C00E94080C0E946E0B8093DD020E949B
:101E2000760B90934903809348030E94030F0E940E
:101E3000720B682F70E090E080E00E947A0660915B
:101E40006702709168028091690290916A020C9415
:101E5000B40608950C94290F08950C942C0FE82FC4
:101E6000F0E0EC5AFC4F80810895089580EA8A954D
:101E7000F1F7089500C008950C94360FF894E82FF8
:101E8000E295EF70F0E031A1282F2F7081E090E013
:101E900001C0880F2A95EAF7982F9095932391A374
:101EA00092A1892B82A37894089508950C94550FDC
:101EB000CF93DF93C0E3D2E089918F3F11F00E946E
:101EC0003E0F82E0C533D807B9F7CAE2D2E0899164
:101ED0008F3F11F00E943E0F82E0C033D807B9F760
:101EE000DF91CF910895CF92DF92EF92FF920F93FF
:101EF0001F93CF93DF93EC01D62E062F10E0C8017D
:101F0000805D9D4F7C01FC0180818F3F09F445C0BD
:101F1000F894E82FE295EF70F0E091A18F7021E046
:101F200030E001C0220F8A95EAF7892F822B81A326
:101F300082A12095282322A378940E943A0FEAE2F6
:101F4000F2E040E352E031E0C12C21912F3F71F1EA
:101F5000A22FA295AF70B0E090968C9190E02F7078
:101F600002C0959587952A95E2F780FD1FC0832FC3
:101F7000C82A330F4E175F0741F7F70180818F3F63
:101F800011F00E943E0F61E0C11001C060E08D2D94
:101F90000E943C0FC00FD11FC882DF91CF911F91CB
:101FA0000F91FF90EF90DF90CF90089580E0E0CF09
:101FB0000E941A11809186018091860195E081111D
:101FC00090E090935F0385E0891B80935E030E94FD
:101FD000580F8AE0E4E5F3E0DF01982F1D929A950F
:101FE000E9F7EAE4F3E0DF011D928A95E9F785E07D
:101FF0000E94B9100E94DC020C942411EF92FF920F
:102000000F931F93CF93DF9300D000D00F92CDB7E3
:10201000DEB70E94F710F82E60915F03882309F461
:1020200048C085E0E82E8E010F5F1F4FF8018E2D0E
:1020300011928A95E9F7862F90E0B8018C5A9C4F4F
:102040000E9432118823F9F080915E0390E045E010
:1020500050E0B8018C5A9C4F0E94AF2221E020939F
:10206000DE02892BD1F4F12C0E94E2028F2D0F9019
:102070000F900F900F900F90DF91CF911F910F91C4
:10208000FF90EF9008958091DE02882361F3F801BC
:102090001192EA94E9F71092DE02A0915E03B0E09B
:1020A000AC5ABC4F85E0F80101900D928A95E1F79A
:1020B000DBCF70E06C5A7C4F80915E0390E08C5ACD
:1020C0009C4F0E94BF110E94560FD0CFEF92FF92FB
:1020D0000F931F93CF93DF93CDB7DEB72A970FB639
:1020E000F894DEBF0FBECDBF8E010F5F1F4F8AE099
:1020F000F80111928A95E9F7F12C6F2DC8010E9421
:10210000730FF394F5E0FF12F8CF4AE050E0B80106
:102110008AE493E00E94AF227C0121E0892B09F43C
:1021200020E0E114F10441F08AE0F801AAE4B3E010
:1021300001900D928A95E1F760915F0370E06C5A0F
:102140007C4F45E08AE493E00E94BA1081E090E081
:10215000EF2811F40E94FE0F2A960FB6F894DEBF06
:102160000FBECDBFDF91CF911F910F91FF90EF90E8
:1021700008950895FF920F931F93CF93DF93F82E46
:10218000092F162FD72FC42F222349F081E08093E7
:10219000E1020E94781B9093E0028093DF0280911D
:1021A000E1028823A1F08091DF029091E0020E9479
:1021B000901B059760F0EF2DF02FA12FBD2FCE0FB4
:1021C000DF2FD11DEC17FD0741F41092E102DF91E2
:1021D000CF911F910F91FF90089581918D93F2CF30
:1021E00025982D9883B185FB882780F90895CF9392
:1021F0008091E402811116C0C8EC0E94A3228111D3
:102200000EC08FE39CE90197F1F700C00000C150B8
:10221000A1F782E08093E4020E949E2203C081E045
:102220008093E40281E09091E402913009F080E033
:10223000CF9108950E94F010809386010E94F710BC
:1022400081110C94681108950E94F710811102C049
:102250000C946A11089581E09091E5029A3008F09B
:1022600080E008950F931F93CF93DF93EC018B01D0
:102270008091E5028A30B8F4B801CE010E94BD1108
:10228000C82F811122C08091E5028F3FB9F40E94CE
:10229000781B9093E3028093E2028C2FDF91CF9121
:1022A0001F910F9108958091E2029091E3020E94A4
:1022B000901B843F914000F7C0E0EFCF8F5F809389
:1022C000E5028A3020F7C1E0E8CF1092E502E5CFC1
:1022D0000C941C180C941F18EF92FF920F931F93ED
:1022E000CF93DF937901C82F880FDD0B411551057E
:1022F000A9F08AE08C9FF0018D9FF00D1124E95721
:10230000FE4F838194818A519D4F228130E0421794
:10231000530708F49A01A9010E94BC22CE010E9431
:102320002919892B11F501151105E9F08AE08C9F17
:10233000F0018D9FF00D1124E957FE4F458150E0CB
:102340000417150708F4A8018AE08C9FF0018D9FFF
:10235000F00D1124E957FE4F668177816A517D4F58
:10236000C7010E94BC2281E001C080E0DF91CF91D3
:102370001F910F91FF90EF9008950C9477130C9498
:10238000A313CF92DF92EF92FF920F931F93CF93FD
:10239000DF9300D0CDB7DEB760910C0370910D03D1
:1023A00080910E0390910F030E949F1B6B017C0193
:1023B00011E084E6C816D104E104F10408F410E049
:1023C0000E942E0B898394E6C916D104E104F1041E
:1023D00038F4E0913A02F0913B029785891311E0BD
:1023E0000E94440B8A83111108C0E0913A02F091D7
:1023F0003B02908911E08917C9F010E000E030E05D
:1024000020E042E050E0BE016F5F7F4F84E00E9419
:102410006C11182F882351F00E94841B60930C03C9
:1024200070930D0380930E0390930F03812F0F90F1
:102430000F90DF91CF911F910F91FF90EF90DF9060
:10244000CF9008950F931F93CF93DF9300D000D0C8
:10245000CDB7DEB7609108037091090380910A033C
:1024600090910B030E949F1B11E06436710581055A
:10247000910518F10E94D00E6E5F7F4F8F4F9F4FD6
:1024800069837A838B839C8310E000E030E020E056
:1024900044E050E0BE016F5F7F4F83E00E946C110B
:1024A000182F882351F00E94841B609308037093B7
:1024B000090380930A0390930B03812F0F900F90D1
:1024C0000F900F90DF91CF911F910F9108950F936F
:1024D0001F93CF93DF93EC0160913A0270913B021E
:1024E0006A5F7F4F45E050E00E94AF228C0160910F
:1024F00004037091050380910603909107030E94E5
:102500009F1B643671058105910510F4012BE9F0DC
:1025100010E000E030E020E045E050E0BE0182E065
:102520000E946C11C82F882351F00E94841B609375
:1025300004037093050380930603909307038C2F85
:10254000DF91CF911F910F910895C1E0F8CFAF9225
:10255000BF92CF92DF92EF92FF920F931F93CF9390
:10256000DF9300D000D000D0CDB7DEB77B01C090A4
:102570003A02D0903B0201E010E09E012A5F3F4FFB
:1025800050E040E070E060E080E00E946C11182FA5
:10259000882309F448C056018FEFA81AB80A609141
:1025A00000037091010380910203909103030E9444
:1025B0009F1B643671058105910568F105E010E007
:1025C0009E012F5F3F4F50E040E070E060E081E00F
:1025D0000E946C11D82E65E070E0C5010E940A14BB
:1025E00011E09E81981310E01D2141F10E94841B8F
:1025F000609300037093010380930203909303039D
:1026000085E0FE013196ABEFB2E001900D928A9524
:10261000E1F711E013C065E070E0C5010E940A1403
:102620009E818913CBCF85E0F6013196DE011196AC
:1026300001900D928A95E1F71111E2CF85E0EBEF61
:10264000F2E0D70101900D928A95E1F7812F26964D
:102650000FB6F894DEBF0FBECDBFDF91CF911F91B3
:102660000F91FF90EF90DF90CF90BF90AF900895C3
:10267000AF92BF92CF92DF92EF92FF920F931F9390
:10268000CF93DF937C015B016A010E942B1101E073
:1026900010E0882311F00AE010E0C1E0D0E0F894E7
:1026A000B501C701F60109957894811104C02196FE
:1026B0000C171D075CF4DF91CF911F910F91FF90D4
:1026C000EF90DF90CF90BF90AF900895CC9F900196
:1026D000CD9F300D300D112490E080E045E34A9508
:1026E000F1F70000019682179307C1F7D8CF0F9337
:1026F0001F93CF93DF93EC018B0147EA52E10E94D5
:1027000038138823D1F047E652E1B801CE010E9488
:102710003813882391F042E252E1B801CE010E94C1
:102720003813882351F041EC51E1B801CE01DF911B
:10273000CF911F910F910C94381380E0DF91CF91CE
:102740001F910F9108950F931F93CF93DF938C01E7
:10275000F894C0913A02D0913B02CE01019625E057
:10276000FB01DC0101900D922A95E1F765E070E034
:102770000E940A1488837894F894FE01369685E0C6
:10278000D80101900D928A95E1F77894F8946B85C1
:102790007C858D859E850091F7021091F80220912D
:1027A000F9023091FA02601771078207930751F01E
:1027B0006093F7027093F8028093F9029093FA0203
:1027C0000E94B30E7894F8948F850E943E0B8889FE
:1027D0000E94540B7894DF91CF911F910F9108952F
:1027E0000E94721D0E94420C0C947E1D0E94821D4C
:1027F0000E944C0C0C949C1D0E94021B0E94591DAF
:102800000E94300C0E94F0130E94F6130E943E0CAE
:10281000FBCF0895FC01680F791F8FEF91E36E17CE
:102820007F0709F408952191822728E030E087FF8F
:1028300006C0880F892721503109C9F7F0CF880FCA
:10284000FACFCF93DF93EC01FB018281882309F457
:1028500020C1C430FDE5DF07C8F5CB3F9CE5D907B3
:1028600030F49E0122503C452431310598F50E94F8
:10287000760B9093490380934803C031FCE5DF0752
:1028800009F4E0C008F061C0C8309CE5D90709F43C
:10289000CBC088F5C430FCE5DF0709F4B3C0E8F429
:1028A000C2309CE5D90709F4A7C080914803826033
:1028B000C330DC4509F4A3C08091480390914903DB
:1028C0000E94840B0E94210680E004C0C236EDE520
:1028D000DE0769F2DF91CF9108958091480380610E
:1028E000C630FCE5DF0709F48AC008F48FC0809188
:1028F0004803806284C0809148038D7FCC309CE582
:10290000D90709F47CC070F4809148038C60CA3008
:10291000FCE5DF0709F473C008F48AC0809148031E
:102920008E7F6DC080914803877FCE309CE5D907AC
:1029300009F465C0809148038B7FCF30DC4508F4F3
:102940005EC0809148038F7E5AC0CD3FFCE5DF0713
:1029500009F474C040F5C4319CE5D90709F48AC074
:1029600058F4C231FCE5DF0709F474C008F46EC006
:1029700080914803837F43C0CB3F9CE5D90709F48E
:1029800049C008F04DC0C531DC4509F095CF8091B4
:10299000480382FB992790F921E0922790FB82F966
:1029A00090FB83F92CC0C1308DE5D80709F458C0DD
:1029B00088F4809149038360CF3FECE5DE0769F13D
:1029C000809149038D7FC115DD4538F18091490320
:1029D0008C7F23C0C3308DE5D80709F458C008F4B4
:1029E00052C0C236DD4509F067CF90914803892F68
:1029F0008F7E94FF806103C0809148038160809343
:102A000048035ACF809148038460F9CF80914803EE
:102A10008860F5CF809149038160809349034CCF52
:102A2000809149038260F9CF809148038064E7CFA9
:102A30000E942106809148038068E1CF809149037C
:102A40008E7FEBCF809148038F7DD9CF8091480353
:102A50008F7BD5CF0E942106809148038F77CFCFFF
:102A600080914903982F909591708E7F892B90FBD0
:102A700081F9D3CF0E94210690914803892F97FBBB
:102A800087F98058BCCF81E00E940A0C15CF80E006
:102A9000FBCF81E01FCFCF93DF93EB0186319C45C5
:102AA00011F50E942E0B9A81992399F08A7A91E070
:102AB00009F490E090931003811109C089E20E940B
:102AC000FB0A0E940F0B80E0DF91CF91089585E310
:102AD000F6CF80911003811104C089E20E94020B9D
:102AE000F0CF85E3FBCF81E0EFCF0F931F93CF9320
:102AF000DF93C42FD22FFC0182818823C9F0409339
:102B000013030E94781B909312038093110380E2B9
:102B10008C0F883008F050C0C77081E001C0880F6A
:102B2000CA95EAF7DF91CF911F910F910C94280479
:102B300010911303141335C0809111039091120367
:102B40000E94901B883C910560F5C0E2CD0F1D17D7
:102B5000B9F080E2810F883040F4177081E001C045
:102B6000880F1A95EAF70E942F04C83048F481E0D4
:102B70009D2F977001C0880F9A95EAF70E9428044C
:102B8000802F0E942004C830B8F4D77081E001C0C3
:102B9000880FDA95EAF7DF91CF911F910F910C948E
:102BA0002F0480E28C0F883038F4C77081E001C0B8
:102BB000880FCA95EAF7EFCFDF91CF911F910F9160
:102BC00008950F939C01CB01243F4CE5340759F144
:102BD000A8F4293DFCE53F0701F12A3D4CE5340707
:102BE000D1F1283D3C4591F406E221EE41EE68ED3D
:102BF0007CE50E94751580E00F910895263FFCE565
:102C00003F07E9F0B0F0273F3C45F9F0FC01828135
:102C1000882339F110921303EFCF07E225EE45EE3A
:102C200069ED7CE5E6CF06E221EE40EE64EF7CE55F
:102C3000E0CF07E225EE44EE65EF7CE5DACF06E271
:102C400021EE42EE66EF7CE5D4CF07E225EE46EEBC
:102C500067EF7CE5CECF08E221E045EE6AED7CE54A
:102C6000C8CF81E0C9CFCF93DF93EC0181E0898B9E
:102C70008F810E94310B88850E94470B0E940F0BA9
:102C8000EA81FB81309739F06C897D89CE01069607
:102C9000DF91CF910994DF91CF910895CF93DF9386
:102CA000EC018881823039F4FB01828193810E949A
:102CB0005D0281E08B87DF91CF910895FC018081D7
:102CC000813029F4FB01808191810C945D02823076
:102CD00021F4FB0182819381F8CF0895EFE3FCE9B1
:102CE0003197F1F700C00000FC018081813029F4A8
:102CF000FB01808191810C947402823021F4FB01EC
:102D000082819381F8CF0895EF92FF920F931F93E2
:102D1000CF93DF93EC018A85811134C0EB80FC8076
:102D200087E5F81A26E12E9DC0012F9D900D1124F4
:102D3000DC01A050BF4F1496ED91FC911597309790
:102D400031F054966D917C918A5F9E4F099586E192
:102D50008E9D80018F9D100D112400501F4FF80192
:102D600087810E94370BF80180850E944D0B0E94DD
:102D70000F0B188219861B861E821D821092150366
:102D800010921403DF91CF911F910F91FF90EF905C
:102D90000895DF92EF92FF920F931F93CF93DF93EB
:102DA0007C01FB018281882399F08091B901909187
:102DB000BA01019669F0C0E0D1E010E000E0DD2446
:102DC000D3948091B9019091BA018017910744F48E
:102DD000DF91CF911F910F91FF90EF90DF900895B9
:102DE0008E818823D9F089859A858E159F0539F4BF
:102DF00080911403909115038E159F0579F0DF865D
:102E0000FC86EB868989811103C0CE010E943316AE
:102E1000CE0106960E9484160E94570B0F5F1F4F2B
:102E20006696CFCFEF92FF920F931F93CF93DF93CE
:102E30007C0197558F3F910509F0D0F52091B9019C
:102E40003091BA012817390724F49093BA0180937E
:102E5000B901FB01228136E1389F8001399F100DB5
:102E60001124E801C050DF4F288B92818E81992375
:102E700039F1FA86E9868F5F8E830E94781B9E87E0
:102E80008D871F820E942E0B88870E94440B988595
:102E9000892B8887E881F981309731F06C897D89A9
:102EA000C8018A5F9E4F0995F0921503E0921403C2
:102EB00081E0DF91CF911F910F91FF90EF900895E6
:102EC0008823B1F38989882399F3C8018A5F9E4FCB
:102ED0000E948416EDCFEF92FF920F931F93CF9332
:102EE000DF938091B9019091BA0110E006E101965B
:102EF000C1F5DF91CF911F910F91FF90EF90089551
:102F0000089FF001099FF00D1124E050FF4FE28867
:102F1000F388E114F10419F428ECE22EF12C089F57
:102F2000E001099FD00D1124C050DF4F8E8188230E
:102F3000B9F08D859E850E94901BE816F90680F4F5
:102F4000109F700111248989811105C0C70180502B
:102F50009F4F0E943316C7018A5F9E4F0E948416BE
:102F60001F5F812F90E02091B9013091BA0128179D
:102F7000390734F6BECF8EE14A9B02C08150E1F79B
:102F80004A9BFECF08955A9880E28A95F1F75A9AA3
:102F90000895FC013BE03A95F1F798E020E080E0ED
:102FA00031E040E14A95F1F7880F4A9B02C0816009
:102FB000232742E04A95F1F7000040E14A95F1F7F6
:102FC000915079F790E19A95F1F799B132E03A95FD
:102FD000F1F7000040E14A95F1F792FB992790F94B
:102FE00092272081920F90830895EF92FF920F9382
:102FF0001F93CF93DF930F92CDB7DEB719828C0169
:103000007C01E60EF11C0E151F0561F481E099812B
:10301000911180E00F90DF91CF911F910F91FF9060
:10302000EF9008950E94BB17CE0101960E94C91728
:10303000F80181938F01E7CF529A5A9A08955298D6
:103040005A9AEA9AE9E6F0E080818F7C80830895BD
:103050006150770B91E001C0990F6A95EAF720E083
:1030600031E0911108C0222391F05A9A80E28A95AA
:10307000F1F75A980895492F482339F05A9A23278F
:1030800040E24A95F1F79695ECCF5A98F9CF5A98C5
:10309000EDCFFF920F931F93CF93DF93EC018C0141
:1030A000060F111DC017D10731F4DF91CF911F9189
:1030B0000F91FF900895F9900E94C31768E08F2D3B
:1030C0000E942818EFCF1F920F920FB60F92112473
:1030D000EF92FF920F931F932F933F934F935F9322
:1030E0006F937F938F939F93AF93BF93EF93FF93D0
:1030F000CF93DF930F92CDB7DEB719820E94BB1733
:10310000CE0101960E94C917A82FA695A695A6954F
:10311000282F229525709A2F9570290F922F937042
:1031200026952695920F982797708981982B09F0FC
:1031300075C0A63008F072C080E18A95F1F75A9AFE
:10314000529AB2E0BA95F1F700C05A98EA2EF12CE3
:10315000EAE0AE9FD0011124A957BE4F1896ED9119
:10316000FC9119973097B1F060913A0270913B024F
:1031700016962D913C911797260F371F13968D9118
:103180009C911497680F791F15964C91159712967C
:103190008C9109958AE08E9DF0018F9DF00D112490
:1031A000E957FE4F6581662351F020913A02309134
:1031B0003B0286819781820F931F0E9449180E94CB
:1031C000C317F0E1FA95F1F75A9852985A9A80E1AC
:1031D0008A95F1F78AE08E9D80018F9D100D112454
:1031E00009571E4FD80112966C911297662371F100
:1031F00020913A0230913B0213968D919C91820F5F
:10320000931F0E94F517D801ED91FC91882311F0CE
:1032100088E001C082E080830E94BB170F90DF919D
:10322000CF91FF91EF91BF91AF919F918F917F913E
:103230006F915F914F913F912F911F910F91FF904F
:10324000EF900F900FBE0F901F901895ED91FC918D
:10325000DFCF0F931F93CF93DF93EC0106970CF012
:10326000A9C08AE08C9FF0018D9FF00D1124E957D1
:10327000FE4F80819181892B09F49CC0F894529A69
:103280005A9885E08A95F1F700008C2F8695857015
:103290009C2F9570890F982F937086958695890F2E
:1032A0008E0193E0000F111F9A95E1F7082B0E9401
:1032B000C31700C068E0802F0E942818A0E1AA95DB
:1032C000F1F752985A9A4A9B27C087E090E04A99B2
:1032D00025C08AE08C9F80018D9F100D1124095715
:1032E0001E4FF80165816623A1F120913A023091C9
:1032F0003B0286819781820F931F0E94F5178111EF
:1033000028C0529A5A9AD801ED91FC9182E08083AC
:10331000789482E090E016C000C0D5CF0197B9F450
:10332000529A5A9A8AE08C9FF0018D9FF00D1124D9
:10333000E957FE4F0190F081E02D81E08083789481
:1033400081E090E0DF91CF911F910F91089500C02F
:10335000BECF0E94BB17B0E2BA95F1F75A98529AC5
:10336000E0E1EA95F1F78AE08C9FF0018D9FF00D86
:103370001124E957FE4F6281662351F020913A02F1
:1033800030913B0283819481820F931F0E944918E0
:103390000E94C3178AE08C9FF0018D9FF00D1124CD
:1033A000E957FE4F0190F081E02D1082789490E073
:1033B00080E0C8CF84E090E0C5CF90933D02809339
:1033C0003C02089590931C0380931B0308950E9470
:1033D000F710811103C0809116030895E0911B033B
:1033E000F0911C03309721F00190F081E02D0994B9
:1033F00080E00895E0911B03F0911C03309799F051
:103400002091C701222359F02091480327FF07C0CC
:10341000DC012C9111962C93119726E02C930280BD
:10342000F381E02D099408952091190330911A0336
:103430002817390771F090931A0380931903E091CC
:103440001B03F0911C03309721F00680F781E02DDB
:10345000099408952091170330911803281739070C
:1034600071F09093180380931703E0911B03F09180
:103470001C03309721F00084F185E02D0994089514
:10348000662301F12091C7012223F1F02091480326
:1034900027FF1AC0462F4695469546954E3190F423
:1034A000677021E030E002C0220F331F6A95E2F717
:1034B000840F911DFC01828190E02823392381E053
:1034C000232B69F480E00895FC013296089621913F
:1034D000261721F0E817F907D1F7F4CF81E0089516
:1034E0009C01FC0132969FEF80E04191461751F01C
:1034F0009F3F19F4411101C0982F8F5F8630A9F7C3
:103500009F3F09F40895290F311D97FD3A95F90160
:1035100062830895FC01329608962191261303C018
:10352000DF0111971C92E817F907B9F70895E62F04
:10353000E695E695E695EE3168F4E80FF92FF11D72
:10354000677021E030E001C0220F6A95EAF78281BE
:10355000822B82830895E62FE695E695E695EE3177
:1035600070F4E80FF92FF11D677021E030E001C021
:10357000220F6A95EAF720958281282322830895F5
:103580002091C701222329F02091480327FD0C94A4
:10359000971A0C94701A2091C701222329F02091C8
:1035A000480327FD0C94AB1A0C948A1AFC0132963E
:1035B0008091C701882351F08091480387FF06C09E
:1035C0008EE1DF011D928A95E9F7089586E0F9CF33
:1035D00008950C94E81A811105C081E080931D03C1
:1035E0000C94E91A82E0FACF83E080931D030C94D7
:1035F000E91A0C94EB1A81E080931D030C94E91AEC
:103600000C94FB1A089580916903843031F10E9473
:10361000E60210921E0388E190E020E40FB6F894D1
:10362000A895809360000FBE2093600083B7817FD0
:10363000846083BF83B7816083BF7894889583B7A4
:103640008E7F83BF0FB6F894A89580916000886143
:1036500080936000109260000FBE08950895089551
:10366000CF930E942E1B0E9466100E942F1BC0E069
:103670008C2F0E942F0F811105C0CF5FCA30C1F778
:10368000CF91089581E0FCCF0E9421060C94420363
:103690001F921FB61F9211248F939F93AF93BF93D6
:1036A00080911E03811113C0809161039091620388
:1036B000A0916303B09164034196A11DB11D809355
:1036C000610390936203A0936303B0936403BF917B
:1036D000AF919F918F911F901FBE1F90189582E010
:1036E00084BD93E095BD9AEF97BD80936E000895D9
:1036F0002FB7F8948091610390916203A0916303C6
:10370000B09164032FBF08952FB7F89460916103BF
:103710007091620380916303909164032FBF0895B9
:103720009C014FB7F8948091610390916203A0913E
:103730006303B09164034FBF821B930B0895CF9234
:10374000DF92EF92FF922FB7F894C0906103D09070
:103750006203E0906303F09064032FBFA70196011A
:10376000261B370B480B590BCA01B901FF90EF908C
:10377000DF90CF90089578941F921FB61F92112466
:103780008F939F93AF93BF93809161039091620356
:10379000A0916303B09164030196A11DB11D8093B4
:1037A000610390936203A0936303B0936403BF919A
:1037B000AF919F918F911F901FBE1F90189587E723
:1037C00097E7909301088093000888E19AE00FB68C
:1037D000F894A895809360000FBE90936000FFCF8F
:1037E0008091420308950895CF93DF93EC01809177
:1037F000C7018823B1F18091480387FF32C060E29E
:1038000082E08093E9008FEF9091E800815095FD70
:1038100006C095ED9A95F1F700008111F5CF8091E2
:10382000E80085FF1BC08091C70170E050E040E0D8
:10383000811104C050E040E068E070E0CE010E94D9
:103840000D1E8091E8008E778093E80080E2FE01F3
:10385000A2E2B3E001900D928A95E1F7DF91CF915A
:10386000089568E081E0CDCF80931F03709321031A
:103870006093200380916903843001F582E0809396
:10388000E9008FEF9091E800815095FD06C095ED1D
:103890009A95F1F700008111F5CF8091E80085FF3E
:1038A0000DC050E040E063E070E08FE193E00E94E3
:1038B0000D1E8091E8008E778093E8000895BC018A
:1038C00084E00C94341CBC0183E00C94341C0895F7
:1038D00080916803811109C00E949D1F0E94FA1FF8
:1038E0008091E20084608093E20008951092680362
:1038F00008950C94FB1A6091650381E0611101C089
:1039000080E00C94F41A9091690381E0943009F0FE
:1039100080E0609165030C94F91A42E061EC81E06B
:103920000E94191F42E261EC82E00E94191F9091EF
:10393000690381E0943009F080E0609165030C94A4
:10394000EB1A80916B03833009F460C030F481304E
:10395000C9F1823009F49CC008958A3009F488C006
:103960008B3009F46EC0893009F04FC080916A0332
:10397000813209F04AC080916E0390916F030297E3
:1039800008F043C08091E800877F8093E800809131
:10399000E80082FF36C09091F3008091F200029718
:1039A00031F48091F100813011F0863021F4809162
:1039B000F100809342038091E8008B778093E800C8
:1039C0000C944D1F80916A03813AF9F48091E800CC
:1039D000877F8093E80080916E0390916F03892B1D
:1039E00061F460E282E293E070E00E945C1E8091EC
:1039F000E8008B778093E800089560E090E080E035
:103A0000F3CF809169038111C2CF089580916A0339
:103A1000813AD9F780916E0390916F03892BA9F7B2
:103A20008091E800877F8093E8008091E80080FF24
:103A3000FCCF8091C7018093F1008091E8008E77E0
:103A4000BDCF80916A03813201F780916E0390911E
:103A50006F03892BD1F68091E800877F8093E8007F
:103A60000E944D1F80916C038093C7010C94210626
:103A700080916A03813249F68091E800877F8093C4
:103A8000E8000E944D1F80916D03809343030895C9
:103A900080916A03813A09F0B8CF8091E800877F6E
:103AA0008093E8008091E80080FFFCCF8091430381
:103AB000C2CF84B7877F84BF0FB6F894A895809152
:103AC0006000886180936000109260000FBE80E803
:103AD00090E00FB6F89480936100909361000FBE60
:103AE0000C94001B0E949D1F0E94FA1FE2EEF0E062
:103AF00080818460808378940C9483228BEB91E0A6
:103B00000C94E219809169038530A9F480916903CE
:103B1000853011F00C94441B0E94031B80916703B5
:103B20008823A1F30E94301B882381F30E94F71D94
:103B30000E942106EBCF089508950C949F1D292F14
:103B400033272330310519F168F42130310509F4A8
:103B500044C02230310509F445C090E080E030E0F7
:103B600020E025C02132310549F122323105A9F783
:103B700080E490E022E833E061157105C1F08DE644
:103B800090E025E133E06130710589F0E6CF9927B7
:103B90008130910581F0009729F00297F1F6ECE869
:103BA000F2E002C0E4ECF2E0849190E09F01FA01BF
:103BB000318320830895E8EAF2E0F6CF89E090E0CF
:103BC0002AED32E06115710591F389E090E023EF71
:103BD00032E06130710559F3C0CF82E190E023E01B
:103BE00033E0E5CF8BE390E028EC32E0E0CF80E1FA
:103BF00089BD82E189BD09B400FEFDCF8091D80066
:103C00008F7D8093D8008091E00082608093E000F7
:103C10008091E00081FDFCCF0895AF92BF92CF92DA
:103C2000DF92FF920F931F93CF93DF936C01EB0111
:103C30008A010E946C1FF82E811123C00115110505
:103C400039F0F80180819181C81BD90BC80ED91EAB
:103C5000B12CA12C2097A9F08091E80085FD22C00D
:103C60008091E8008E778093E80001151105A1F09E
:103C7000F80180819181A80EB91EB182A08285E0F1
:103C8000F82E8F2DDF91CF911F910F91FF90DF9034
:103C9000CF90BF90AF9008950E946C1F8823D1F2FF
:103CA000F82EEFCFF60181916F018093F1002197FB
:103CB000FFEFAF1ABF0ACECFFC0180917003909145
:103CC000710386179707A0F06115710529F490918B
:103CD000E8009E779093E80090E06115710551F43B
:103CE000911108C08091E80082FF34C080E00895FF
:103CF000BC01F2CF809169038823C1F18530C1F105
:103D00008091E80083FD30C08091E80082FDEACF19
:103D10008091E80080FFE1CF8091F3002091F200D4
:103D2000382F6115710519F02830310558F091E0F0
:103D30002830310509F090E02091E8002E7720939B
:103D4000E800CBCF81918093F100615071092F5F22
:103D50003F4FE7CF80916903882341F0853041F0E0
:103D60008091E80083FFBECF81E0089582E008954E
:103D700083E00895FC018091700390917103861790
:103D80009707A0F06115710529F48091E8008E77FE
:103D90008093E80090E06115710551F4911108C01D
:103DA0008091E80082FF35C080E00895BC01F2CF29
:103DB000809169038823C9F18530C9F18091E800B9
:103DC00083FD31C08091E80082FDEACF8091E80058
:103DD00080FFE1CF8091F3002091F200382F611530
:103DE000710519F02830310558F091E0283031057F
:103DF00009F090E08091E8008E778093E800CBCFC7
:103E000084918093F1003196615071092F5F3F4F8B
:103E1000E6CF80916903882341F0853041F080919D
:103E2000E80083FFBDCF81E0089582E0089583E03C
:103E30000895982F973028F08F708093E90081E0E3
:103E400008959093E900242F762F50E0981731F0D1
:103E50007091EC002091ED005091F00021FD02C026
:103E60009F5FE8CF3091EB003E7F3093EB003091C5
:103E7000ED003D7F3093ED003091EB0031603093E9
:103E8000EB007093EC002093ED005093F000209134
:103E9000EE0027FDE5CF80E0089580916A0387FF5B
:103EA00013C08091E80082FF06C08091E8008B7704
:103EB0008093E80004C0809169038111F2CF0895D6
:103EC000809169038823D9F38091E80080FFF8CFBF
:103ED0008091E8008E77ECCF2091E4003091E500EE
:103EE00095E6A9012091EC00822F817020FF06C089
:103EF0008091E80080FF06C080E008952091E800EE
:103F000022FD1AC080916903882389F0853089F0E9
:103F10008091EB0085FD0FC02091E4003091E50019
:103F200042175307F9F29150E1F684E0089582E0D8
:103F3000089583E0089581E008950E940B200E9477
:103F40001320E0EEF0E0808181608083E8EDF0E016
:103F500080818F77808319BCA7EDB0E08C918E7F34
:103F60008C9380818F7E80831092680308950F93D5
:103F70001F93CF93DF930E940B200E941320C8ED64
:103F8000D0E088818F778883888180688883888162
:103F90008F7D888319BC109269031092650310927B
:103FA00067031092660300EE10E0F80180818B7FBA
:103FB000808388818160888342E060E080E00E94A5
:103FC000191FE1EEF0E080818E7F8083E2EEF0E069
:103FD000808181608083808188608083F801808116
:103FE0008E7F8083888180618883DF91CF911F914C
:103FF0000F910895E8EDF0E080818F7E8083E7EDFA
:10400000F0E080818160808384E082BF81E08093E2
:1040100068030C94B71FE8EDF0E080818E7F808309
:104020001092E20008951092DA001092E1000895D3
:104030001F920F920FB60F9211242F933F934F931D
:104040005F936F937F938F939F93AF93BF93EF9300
:10405000FF938091E10082FF0BC08091E20082FF1C
:1040600007C08091E1008B7F8093E1000E94822253
:104070008091DA0080FF19C08091D80080FF15C0C0
:104080008091DA008E7F8093DA008091D90080FFE2
:1040900096C080E189BD82E189BD09B400FEFDCFF3
:1040A00081E0809369030E94681C8091E10080FF99
:1040B00019C08091E20080FF15C08091E2008E7FE0
:1040C0008093E2008091E20080618093E200809121
:1040D000D80080628093D80019BC85E08093690382
:1040E0000E947B1C8091E10084FF2BC08091E20044
:1040F00084FF27C080E189BD82E189BD89B5982F01
:10410000917080FFFBCF8091D8008F7D8093D80085
:104110008091E1008F7E8093E1008091E2008F7EAC
:104120008093E2008091E20081608093E2008091C0
:104130006503882309F449C084E0809369030E94E1
:10414000831C8091E10083FF29C08091E20083FFFE
:1041500025C08091E100877F8093E10082E0809319
:104160006903109265038091E1008E7F8093E100E6
:104170008091E2008E7F8093E2008091E200806176
:104180008093E20042E060E080E00E94191F80918D
:10419000F00088608093F0000E94791CFF91EF91FD
:1041A000BF91AF919F918F917F916F915F914F914F
:1041B0003F912F910F900FBE0F901F90189519BC33
:1041C000109269030E94761C70CF8091E30087FDF6
:1041D00093E090936903B3CF1F920F920FB60F92A3
:1041E00011242F933F934F935F936F937F938F93FC
:1041F0009F93AF93BF93CF93DF93EF93FF93D091B0
:10420000E900DF708091EC00C82FC17080FDC0E82C
:104210001092E9008091F000877F8093F0007894FD
:104220000E9430211092E9008091F0008860809314
:10423000F000CD2BCF70C093E900FF91EF91DF919B
:10424000CF91BF91AF919F918F917F916F915F912E
:104250004F913F912F910F900FBE0F901F90189587
:104260001F93CF93DF93CDB7DEB7AA970FB6F8941D
:10427000DEBF0FBECDBF8AE693E02091F100FC01C6
:104280002193CF01F3E082379F07B9F70E94A11C69
:104290008091E80083FF1EC180916A0390916B03B7
:1042A0009A3008F017C1E92FF0E0ED5DFC4D0C9459
:1042B000A922803899F0823809F00CC180916E03F0
:1042C0008F70873008F006C18093E9008091EB0081
:1042D00085FB882780F91092E90006C0809166036B
:1042E00090916703911182609091E800977F90937D
:1042F000E8008093F1001092F1008091E8008E7741
:10430000E5C0882309F4D3C0823009F0E3C080916E
:104310006C038111D6C080916E038F702FEF280F30
:10432000263008F0D7C08093E9002091EB0020FFF1
:10433000C8C0933031F48091EB0080628093EB0031
:10434000C0C09091EB0090619093EB0021E030E0D1
:1043500001C0220F8A95EAF72093EA001092EA0042
:104360008091EB008860EACF8111B4C010916C039A
:104370001F778091E3008078812B8093E300809108
:10438000E800877F8093E8000E944D1F8091E8003D
:1043900080FFFCCF8091E30080688093E30082E09F
:1043A000111183E08093690395C08058823008F032
:1043B00091C080916C0390916D038C3D23E0920736
:1043C000A1F583E08A838AE289834FB7F894DE01FE
:1043D000139620E03EE051E2E32FF0E050935700C7
:1043E000E49120FF03C0E295EF703F5FEF708E2FE6
:1043F00090E0EA30C0F0C7968D939D932F5F2431F3
:1044000059F74FBF8091E800877F8093E8006AE208
:1044100070E0CE0101960E945C1E8091E8008B77CF
:104420008093E80057C0C096E7CF60916E0370910B
:104430006F03AE014F5F5F4F0E949D1DBC01892B32
:1044400009F448C09091E800977F9093E800898133
:104450009A810E94BA1EE1CF8038E1F58091E80090
:10446000877F8093E800809165038093F10045CFBA
:10447000811130C090916C03923060F58091E8001A
:10448000877F8093E800909365030E944D1F809181
:104490006503882311F084E005C08091E30087FD67
:1044A000FACF81E0809369030E948D1C13C0809134
:1044B0006C03813079F481E0933009F080E08093DF
:1044C00067031092E9008091E800877F8093E800FD
:1044D0000E944D1F8091E80083FF0AC08091E80090
:1044E000877F8093E8008091EB0080628093EB00EF
:1044F000AA960FB6F894DEBF0FBECDBFDF91CF9165
:104500001F9108950895CF93809169038823A1F0A6
:10451000C091E900CF709091EC00892F817090FDDF
:1045200080E8C82B1092E9008091E80083FD0E948A
:104530003021CF70C093E900CF9108950E949D1F54
:104540001092690308958091E300881F8827881FCF
:104550000895EE0FFF1F0590F491E02D0994FB01E3
:10456000DC0104C08D910190801921F4415050402C
:10457000C8F7881B990B0895FB01DC0102C001906C
:104580000D9241505040D8F70895F999FECF92BD51
:1045900081BDF89A992780B50895A8E1B0E042E07E
:1045A00050E00C94F922262FF999FECF92BD81BDDF
:1045B000F89A019700B4021639F01FBA20BD0FB661
:1045C000F894FA9AF99A0FBE08950396272F0E943D
:1045D000D4220E94D322252F0E94D422242F0C946F
:1045E000D4220196272F0E94D4220C94D322DC01DE
:1045F000CB01FC01F999FECF06C0F2BDE1BDF89AEE
:10460000319600B40D9241505040B8F70895F89497
:10461000FFCF5104510494049404C0047E047E042A
:104620007E04DA046D057D057D0530063006390609
:1046300039063B063906390639063006300640068B
:10464000390639064006592181216A2281216A22D0
:0A465000B421D5216A222C22382261
:10465A004E165E166E1600000000000000000000F4
:10466A00000000007E014E165E166E160000000065
:10467A000000000000000000000076014E165E16E1
:10468A006E1600000000000000000000000000009C
:10469A007A014E165E166E16000000000000000039
:1046AA0000000000000072014E165E166E16000031
:1046BA000000000000000000000000006E01290058
:1046CA0064004C00490052004B0051004E00AE00FD
:1046DA00A800C800A7020160030000000100000052
:1046EA0000600300000005010000006003050600E9
:1046FA0000000000006003040B00000000000060DE
:10470A0003020F000000000000FFFFF01BF41B670C
:10471A001C631C5F1CF31B01E200E900EA00B50000
:10472A00B600B700CD008301CC008A019201940142
:10473A002102230224022502260227022A02B300AA
:10474A00B4006F007000818283E200E900EA00B5DC
:10475A0000B600B700CD008301CC008A0192019413
:10476A00012102230224022502260227022A02B379
:10477A0000B4006F00700081828331323336F7F65D
:0C478A00946697C6340000000000E602B0
:00000001FF
